:020000040000FA
:02000000E529F0
:08000800022A0F39CB00093C6C
:10001000031C16284B0882070034013402340334D1
:10002000043405340634073408340934FF3400003E
:10003000000008005A30C0002C30B9000D30BE005E
:10004000BD0103100311CB013D08400784000008E7
:10005000BC003D08390784000008BB003B083C0297
:10006000031D3B28BD0ABE03031D242803153D3094
:10007000CB00031408000311031C42283E30CB00C0
:10008000031408003C30CB00031008005A30C000B5
:100090002C30B900CD010D30CC00BD014C08BD00A5
:1000A000BD033D08400784000008BC003D08390737
:1000B00084000008BB004D083B07BB003B083C0226
:1000C000031C6528CB00CD0169280A3ECB00013016
:1000D000CD003D08400784004B088000BD0ACC03DA
:1000E000031D4E2808005B08DA005C08DB005D0891
:1000F000DC005E08DD005F08DE006008DF006108EC
:10010000E0006208E1006308E2006408E3006508BB
:10011000E4006608E500E60108005B08DA005C0818
:10012000DB005D08DC005E08DD005F08DE006008C3
:10013000DF006108E0006208E1006308E200640893
:10014000E3006508E4006608E5002008E6002108F1
:10015000A0002208A1002308A2002408A30025086B
:10016000A4002608A5002708A6002808A70029083B
:10017000A8002A08A9002B08AA00AB01080037082C
:10018000B8003608B7003508B6003408B5003308A3
:10019000B4003208B3003108B2003008B1002F08B3
:1001A000B0002E08AF002D08AE002C08AD00AC0149
:1001B00008000C30BF004E30C200C7015A30C000EA
:1001C0002C30B9008D20C7011A20031CEA284620D4
:1001D000C70AE4284208840047088000C20A42088F
:1001E000593C031C0800DE280C30BF004E30C20012
:1001F000C701DA0173205A30C0002C30B9001A2030
:10020000031C05294620C70AFF2842088400470826
:100210008000C20A7320C7014208593C031C080031
:10022000FB284E08A000CE014F08A100CF015008C6
:10023000A200D0015108A300D1015208A400D201AC
:100240005308A500D3015408A600D4015508A700FF
:10025000D5015608A800D6015708A900D7015808AB
:10026000AA00D8015908AB00D9010800831603136E
:1002700000308700831203138701880126080F3995
:100280008700CB210814000000000810861E4629B4
:10029000CB21870127080F398700CB2108140000E4
:1002A00000000810861E5229CB21870128080F392B
:1002B0008700CB210814000000000810861E5E296C
:1002C000CB21870129080F398700CB2108140000B2
:1002D00000000810861E6A29CB2187012A080F39E1
:1002E0008700CB210814000000000810861E762924
:1002F000CB2187012B080F398700CB210814000080
:1003000000000810861E8229CB2187014E080F3974
:100310008700CB210814000000000810861E8E29DB
:10032000CB2187014F080F398700CB21081400002B
:1003300000000810861E9A29CB21870150080F392A
:1003400087000814000000000810861EA529CB2194
:10035000870151080F3987000814000000000810B9
:10036000861EB029CB21870152080F398700081457
:10037000000000000810861EBB29CB21870153080E
:100380000F3987000814000000000810861EC629D7
:10039000CB21E529080083120313FF30FD008330D1
:1003A000FE000230FF00FD0BD329FE0BD329FF0B0B
:1003B000D5290800BF202B30C0000C30CB00D9203D
:1003C0001121F420CB2136210800031383160614D3
:1003D00086168610831603138801FF308700831268
:1003E0000313870188010B168B1720308400F92135
:1003F000202A8001840A67300402031DF929203075
:10040000E70008008B108B130708C9000520CA00FD
:10041000FF3C031D0C2A192A670884004A08800043
:10042000E70A38306706031986143830670603195F
:10043000DA2186141720861067060319861409002E
:02044000202A70
:02400E00313748
:00000001FF
