:020000040000FA
:020000002E2BA5
:08000800B02AF930E30000000A
:10001000E30B0728080083120313FF30FD00833031
:10002000FE000230FF00FD0B1328FE0B1328FF0B10
:10003000152808000B200B200B200B2008002E3069
:1000400084000C30E3008001840AE30B23280800BD
:100050003A3084001830E3008001840AE30B2C2836
:100060000800E001FF30E500061C3428061C3D288E
:1000700005200520E50B362808000130E0000800C7
:10008000223084001830E40000080F39870008147B
:1000900000000810861E4A2805200520052005209E
:1000A000840AE40B4428080083160313FF308700FA
:1000B000831203133A3084005D28061D5D2807086B
:1000C0000F3980008614000000008610840A04089E
:1000D000463C031D5D288F2AF930F0000000F00B2C
:1000E0006E280800F1006C20F10B73280800081539
:1000F0006C2008116C200800F500F0398800F41815
:10010000881477206C20F50E7508F0398800F418F3
:10011000881477206C20080064307220F030F400DE
:100120003030880077200530722077206C207720CF
:100130000812772028307C2008307C2001307C2079
:1001400006307C2080307C200C307C200800013080
:10015000F4107C208030F4107C20F4140800A720D8
:1001600057307C2065307C206C307C2063307C20D4
:100170006F307C206D307C2065307C2020307C20EE
:1001800074307C206F307C20F410C0307C20F4145C
:1001900044307C2069307C2076307C2069307C20A3
:1001A00073307C2069307C206F307C206E307C2066
:1001B0000800A720F4144E307C2075307C206D3070
:1001C0007C2062307C2065307C2072307C202030A6
:1001D0007C2031307C20F410C0307C20F4142208C4
:1001E000303E7C202308303E7C202408303E7C209A
:1001F0002508303E7C202608303E7C202708303EF3
:100200007C202E307C202808303E7C202908303E7F
:100210007C202A08303E7C202B08303E7C202C0895
:10022000303E7C202D08303E7C20F4100C307C20A9
:100230000E307C205E080D3CE4005E08053C031C8B
:10024000E403F41010307C20E40B21290800A720DF
:10025000F4144E307C2075307C206D307C20623070
:100260007C2065307C2072307C2020307C20323035
:100270007C200800A720F4144E307C2075307C20B0
:100280006D307C2062307C2065307C2072307C2098
:1002900020307C2032307C20F410C0307C20F414DC
:1002A0002E08303E7C202F08303E7C203008303E27
:1002B0007C203108303E7C203208303E7C203308E0
:1002C000303E7C202E307C203408303E7C203508A7
:1002D000303E7C203608303E7C203708303E7C2083
:1002E0003808303E7C203908303E7C20F4100C3039
:1002F0007C200E307C205E080D3CE4005E08053C4E
:10030000031CE403F41010307C20E40B8229080065
:10031000A720F41452307C2065307C2073307C2080
:1003200075307C206C307C2074307C20F410C03020
:100330007C20F4143A08303E7C203B08303E7C2080
:100340003C08303E7C203D08303E7C203E08303E5C
:100350007C203F08303E7C202E307C204008303E00
:100360007C204108303E7C204208303E7C204308FF
:10037000303E7C204408303E7C204508303E7C20C6
:100380000800A720F4142208303E7C202308303EC9
:100390007C202408303E7C202508303E7C20260826
:1003A000303E7C202708303E7C202E307C202808E0
:1003B000303E7C202908303E7C202A08303E7C20BC
:1003C0002B08303E7C202C08303E7C202D08303E0F
:1003D0007C200800A720F4142E08303E7C202F0833
:1003E000303E7C203008303E7C203108303E7C207E
:1003F0003208303E7C203308303E7C202E307C207A
:100400003408303E7C203508303E7C203608303EB3
:100410007C203708303E7C203808303E7C2039086C
:10042000303E7C200800A7200C30F4107C20F4140F
:100430003D307C200800031383160614861606152B
:100440008610880188150030870083160C108312EF
:10045000003090000C108312D83081008801870191
:10046000203084008001840A5A300402031D322A9D
:100470000030A0008C20A7200800A720AF200B2070
:10048000A720AF200B20A720AF200B2008005E087C
:10049000DF00FF30E600D9200B168B170B17052065
:1004A0000520052005208B170B165E085F06031D2F
:1004B0005C2AE60B4F2A632A5E08063A0319612A72
:1004C000632AE60B4F2A8B100B11DE0A5E080B3CE9
:1004D0000318472A08005E08DF00FF30E6003A21D3
:1004E0000B168B170B1705200520052005208B17F1
:1004F0000B165E085F06031D802AE60B732A872A07
:100500005E08063A0319852A872AE60B732A8B10A0
:100510000B11DE0A5E080B3C03186B2A080005303D
:10052000A0008821DE01DF010B168B170B170530A9
:10053000A0005E085F06031D9E2A942A5E08DF0065
:100540006008013C0319312B5E08031988215E08FD
:10055000013C0319C1215E08023C0319EA21942AD7
:10056000E100030EE2008B130B128B128B100B11A8
:100570002008053C0319C42A31206008031D082BFC
:10058000D02A0130A1000800831203133120600833
:10059000031DC122DE0A5E08033C0319DE01252B80
:1005A00021080319D52AA101252B2008013C031994
:1005B000DE2A2008023C0319F32A252B22305E078D
:1005C000E400840012306407E4000008093C0319C9
:1005D000EB2A800AEC2A8001840A04086402031DC5
:1005E000E52AD920252B2E305E07E4008400123046
:1005F0006407E4000008093C0319002B800A012B62
:100600008001840A04086402031DFA2A3A21252B7A
:100610005E08053C03180D2B1A2B0630DE0020085F
:10062000013C0319D9202008023C03193A2101306A
:10063000A100252B0C30DE002008013C0319D92035
:100640002008023C03193A21252B0520052005200E
:10065000FF30E600E100030EE20009001B223D220C
:10066000A7201B221A200130A000FF30E6004722FD
:100670008B100B110230A000DE018B100B111F201C
:1006800027210B200B20FF30E6006B228B100B1173
:1006900013220330A000402028200430A00054285A
:0206A0004F2BDE
:02400E00713F00
:00000001FF
